{"abi":[{"type":"constructor","inputs":[{"name":"_uniswapV2Factory","type":"address","internalType":"address"},{"name":"_uniswapV3Factory","type":"address","internalType":"address"},{"name":"_weth","type":"address","internalType":"address"},{"name":"pools","type":"tuple[]","internalType":"struct WethValueInPools.PoolInfo[]","components":[{"name":"poolType","type":"uint8","internalType":"enum WethValueInPools.PoolType"},{"name":"poolAddress","type":"address","internalType":"address"}]}],"stateMutability":"nonpayable"},{"type":"function","name":"getWethValueInPools","inputs":[{"name":"pools","type":"tuple[]","internalType":"struct WethValueInPools.PoolInfo[]","components":[{"name":"poolType","type":"uint8","internalType":"enum WethValueInPools.PoolType"},{"name":"poolAddress","type":"address","internalType":"address"}]}],"outputs":[{"name":"","type":"tuple[]","internalType":"struct WethValueInPools.PoolInfoReturn[]","components":[{"name":"poolType","type":"uint8","internalType":"enum WethValueInPools.PoolType"},{"name":"poolAddress","type":"address","internalType":"address"},{"name":"wethValue","type":"uint256","internalType":"uint256"}]}],"stateMutability":"nonpayable"}],"bytecode":{"object":"0x608060405234801561001057600080fd5b5060405161270138038061270183398181016040528101906100329190611c37565b838383826000806101000a81548173ffffffffffffffffffffffffffffffffffffffff021916908373ffffffffffffffffffffffffffffffffffffffff16021790555081600160006101000a81548173ffffffffffffffffffffffffffffffffffffffff021916908373ffffffffffffffffffffffffffffffffffffffff16021790555080600260006101000a81548173ffffffffffffffffffffffffffffffffffffffff021916908373ffffffffffffffffffffffffffffffffffffffff160217905550505050600061010b8261013b60201b60201c565b90506000816040516020016101209190611e4a565b60405160208183030381529060405290506020810180590381f35b60606000825167ffffffffffffffff81111561015a57610159611a7a565b5b60405190808252806020026020018201604052801561019357816020015b6101806119a9565b8152602001906001900390816101785790505b50905060005b83518110156103ee5760008482815181106101b7576101b6611e6c565b5b60200260200101519050600060028111156101d5576101d4611ce6565b5b816000015160028111156101ec576101eb611ce6565b5b0361027757600061020682602001516103f860201b60201c565b905060405180606001604052808360000151600281111561022a57610229611ce6565b5b8152602001836020015173ffffffffffffffffffffffffffffffffffffffff1681526020018281525084848151811061026657610265611e6c565b5b6020026020010181905250506103e0565b6001600281111561028b5761028a611ce6565b5b816000015160028111156102a2576102a1611ce6565b5b0361032d5760006102bc826020015161069360201b60201c565b90506040518060600160405280836000015160028111156102e0576102df611ce6565b5b8152602001836020015173ffffffffffffffffffffffffffffffffffffffff1681526020018281525084848151811061031c5761031b611e6c565b5b6020026020010181905250506103df565b6002808111156103405761033f611ce6565b5b8160000151600281111561035757610356611ce6565b5b036103de576000610371826020015161093f60201b60201c565b905060405180606001604052808360000151600281111561039557610394611ce6565b5b8152602001836020015173ffffffffffffffffffffffffffffffffffffffff168152602001828152508484815181106103d1576103d0611e6c565b5b6020026020010181905250505b5b5b508080600101915050610199565b5080915050919050565b600060608273ffffffffffffffffffffffffffffffffffffffff1663cc77828d6040518163ffffffff1660e01b81526004016000604051808303816000875af192505050801561046b57506040513d6000823e3d601f19601f820116820180604052508101906104689190611f5e565b60015b61047957600091505061068e565b8091505060005b81518110156105ba57600260009054906101000a900473ffffffffffffffffffffffffffffffffffffffff1673ffffffffffffffffffffffffffffffffffffffff168282815181106104d5576104d4611e6c565b5b602002602001015173ffffffffffffffffffffffffffffffffffffffff16036105ad578373ffffffffffffffffffffffffffffffffffffffff1663f8b2cb4f83838151811061052757610526611e6c565b5b60200260200101516040518263ffffffff1660e01b815260040161054b9190611fb6565b6020604051808303816000875af192505050801561058757506040513d601f19601f820116820180604052508101906105849190611ffd565b60015b6105965760009250505061068e565b8251816105a39190612059565b935050505061068e565b8080600101915050610480565b506000816000815181106105d1576105d0611e6c565b5b6020026020010151905060008473ffffffffffffffffffffffffffffffffffffffff1663f8b2cb4f836040518263ffffffff1660e01b81526004016106169190611fb6565b6020604051808303816000875af192505050801561065257506040513d601f19601f8201168201806040525081019061064f9190611ffd565b60015b610662576000935050505061068e565b8091505060006106788383610cc460201b60201c565b90508351816106879190612059565b9450505050505b919050565b6000808273ffffffffffffffffffffffffffffffffffffffff16630dfe16816040518163ffffffff1660e01b8152600401602060405180830381865afa9250505080156106fe57506040513d601f19601f820116820180604052508101906106fb919061209b565b60015b61070c57600091505061093a565b8091505060008373ffffffffffffffffffffffffffffffffffffffff1663d21220a76040518163ffffffff1660e01b8152600401602060405180830381865afa92505050801561077a57506040513d601f19601f82011682018060405250810190610777919061209b565b60015b6107895760009250505061093a565b809150508373ffffffffffffffffffffffffffffffffffffffff16630902f1ac6040518163ffffffff1660e01b8152600401606060405180830381865afa9250505080156107f557506040513d601f19601f820116820180604052508101906107f2919061214a565b60015b6108045760009250505061093a565b600260009054906101000a900473ffffffffffffffffffffffffffffffffffffffff1673ffffffffffffffffffffffffffffffffffffffff168573ffffffffffffffffffffffffffffffffffffffff160361088257600283610866919061219d565b6dffffffffffffffffffffffffffff169550505050505061093a565b600260009054906101000a900473ffffffffffffffffffffffffffffffffffffffff1673ffffffffffffffffffffffffffffffffffffffff168473ffffffffffffffffffffffffffffffffffffffff1603610900576002826108e4919061219d565b6dffffffffffffffffffffffffffff169550505050505061093a565b600061092286856dffffffffffffffffffffffffffff16610cc460201b60201c565b90506002816109319190612059565b96505050505050505b919050565b6000808273ffffffffffffffffffffffffffffffffffffffff16630dfe16816040518163ffffffff1660e01b8152600401602060405180830381865afa9250505080156109aa57506040513d601f19601f820116820180604052508101906109a7919061209b565b60015b6109b8576000915050610cbf565b8091505060008373ffffffffffffffffffffffffffffffffffffffff1663d21220a76040518163ffffffff1660e01b8152600401602060405180830381865afa925050508015610a2657506040513d601f19601f82011682018060405250810190610a23919061209b565b60015b610a3557600092505050610cbf565b80915050600260009054906101000a900473ffffffffffffffffffffffffffffffffffffffff1673ffffffffffffffffffffffffffffffffffffffff168273ffffffffffffffffffffffffffffffffffffffff1603610b27578173ffffffffffffffffffffffffffffffffffffffff166370a08231856040518263ffffffff1660e01b8152600401610ac79190611fb6565b602060405180830381865afa925050508015610b0157506040513d601f19601f82011682018060405250810190610afe9190611ffd565b60015b610b1057600092505050610cbf565b600281610b1d9190612059565b9350505050610cbf565b600260009054906101000a900473ffffffffffffffffffffffffffffffffffffffff1673ffffffffffffffffffffffffffffffffffffffff168173ffffffffffffffffffffffffffffffffffffffff1603610c15578073ffffffffffffffffffffffffffffffffffffffff166370a08231856040518263ffffffff1660e01b8152600401610bb59190611fb6565b602060405180830381865afa925050508015610bef57506040513d601f19601f82011682018060405250810190610bec9190611ffd565b60015b610bfe57600092505050610cbf565b600281610c0b9190612059565b9350505050610cbf565b8173ffffffffffffffffffffffffffffffffffffffff166370a08231856040518263ffffffff1660e01b8152600401610c4e9190611fb6565b602060405180830381865afa925050508015610c8857506040513d601f19601f82011682018060405250810190610c859190611ffd565b60015b610c9757600092505050610cbf565b6000610ca98483610cc460201b60201c565b9050600281610cb89190612059565b9450505050505b919050565b600080610cd684610d2860201b60201c565b90506000816fffffffffffffffffffffffffffffffff161115610d0b57610d038184610d7b60201b60201c565b915050610d22565b806fffffffffffffffffffffffffffffffff169150505b92915050565b600080610d3a83610e6c60201b60201c565b90506000816fffffffffffffffffffffffffffffffff161115610d605780915050610d76565b610d6f836111da60201b60201c565b9050809150505b919050565b600080821480610d9d57506000836fffffffffffffffffffffffffffffffff16145b15610dab5760009050610e66565b600060406fffffffffffffffffffffffffffffffff8416856fffffffffffffffffffffffffffffffff1602901c90506000608084901c856fffffffffffffffffffffffffffffffff1602905077ffffffffffffffffffffffffffffffffffffffffffffffff811115610e2257600092505050610e66565b604081901b9050817fffffffffffffffffffffffffffffffffffffffffffffffffffffffffffffffff03811115610e5e57600092505050610e66565b818101925050505b92915050565b60008060008054906101000a900473ffffffffffffffffffffffffffffffffffffffff1673ffffffffffffffffffffffffffffffffffffffff1663e6a4390584600260009054906101000a900473ffffffffffffffffffffffffffffffffffffffff166040518363ffffffff1660e01b8152600401610eec9291906121da565b602060405180830381865afa158015610f09573d6000803e3d6000fd5b505050506040513d601f19601f82011682018060405250810190610f2d919061209b565b9050600073ffffffffffffffffffffffffffffffffffffffff168173ffffffffffffffffffffffffffffffffffffffff1603610f6d5760009150506111d5565b6000808273ffffffffffffffffffffffffffffffffffffffff16630902f1ac6040518163ffffffff1660e01b8152600401606060405180830381865afa925050508015610fd857506040513d601f19601f82011682018060405250810190610fd5919061214a565b60015b610fe857600093505050506111d5565b8294508193505050506000826dffffffffffffffffffffffffffff16148061102057506000816dffffffffffffffffffffffffffff16145b1561103157600093505050506111d5565b600080611043876114c460201b60201c565b915091508061105a576000955050505050506111d5565b6000600260009054906101000a900473ffffffffffffffffffffffffffffffffffffffff1673ffffffffffffffffffffffffffffffffffffffff168873ffffffffffffffffffffffffffffffffffffffff16106110b757846110b9565b835b90506000600260009054906101000a900473ffffffffffffffffffffffffffffffffffffffff1673ffffffffffffffffffffffffffffffffffffffff168973ffffffffffffffffffffffffffffffffffffffff1610611118578461111a565b855b9050601260ff168460ff161115611164576012846111389190612210565b600a6111449190612378565b816dffffffffffffffffffffffffffff1661115f91906123f2565b611199565b8360126111719190612210565b600a61117d9190612378565b816dffffffffffffffffffffffffffff166111989190612059565b5b90506111cb826dffffffffffffffffffffffffffff16826dffffffffffffffffffffffffffff1661163360201b60201c565b9750505050505050505b919050565b60008060405180606001604052806101f461ffff168152602001610bb861ffff16815260200161271061ffff168152509050600080600090505b6003811015611343576000600160009054906101000a900473ffffffffffffffffffffffffffffffffffffffff1673ffffffffffffffffffffffffffffffffffffffff16631698ee8287600260009054906101000a900473ffffffffffffffffffffffffffffffffffffffff1687866003811061129457611293611e6c565b5b60200201516040518463ffffffff1660e01b81526004016112b79392919061247b565b602060405180830381865afa1580156112d4573d6000803e3d6000fd5b505050506040513d601f19601f820116820180604052508101906112f8919061209b565b9050600073ffffffffffffffffffffffffffffffffffffffff168373ffffffffffffffffffffffffffffffffffffffff16146113375780925050611343565b50806001019050611214565b50600073ffffffffffffffffffffffffffffffffffffffff168173ffffffffffffffffffffffffffffffffffffffff1603611383576000925050506114bf565b60008173ffffffffffffffffffffffffffffffffffffffff16633850c7bd6040518163ffffffff1660e01b815260040160e060405180830381865afa9250505080156113ed57506040513d601f19601f820116820180604052508101906113ea91906125a7565b60015b6113fd57600093505050506114bf565b869750505050505050506000600260009054906101000a900473ffffffffffffffffffffffffffffffffffffffff1673ffffffffffffffffffffffffffffffffffffffff168673ffffffffffffffffffffffffffffffffffffffff1610905060008061146e886114c460201b60201c565b915091508061148657600096505050505050506114bf565b60406114b485858661149957601261149b565b855b876114a657866114a9565b60125b61182060201b60201c565b901c96505050505050505b919050565b6000806000808473ffffffffffffffffffffffffffffffffffffffff16614e206040516024016040516020818303038152906040527f313ce567000000000000000000000000000000000000000000000000000000007bffffffffffffffffffffffffffffffffffffffffffffffffffffffff19166020820180517bffffffffffffffffffffffffffffffffffffffffffffffffffffffff838183161783525050505060405161157491906126ba565b60006040518083038160008787f1925050503d80600081146115b2576040519150601f19603f3d011682016040523d82523d6000602084013e6115b7565b606091505b50915091508115611624576000602082510361161557818060200190518101906115e19190611ffd565b905060008114806115f2575060ff81115b15611606576000809450945050505061162e565b8060019450945050505061162e565b6000809450945050505061162e565b6000809350935050505b915091565b6000808203611645576000905061181a565b600077ffffffffffffffffffffffffffffffffffffffffffffffff84116116825782604085901b8161167a576116796123c3565b5b0490506117f3565b600060c09050600060c086901c905064010000000081106116ab57602081901c90506020820191505b6201000081106116c357601081901c90506010820191505b61010081106116da57600881901c90506008820191505b601081106116f057600481901c90506004820191505b6004811061170657600281901c90506002820191505b60028110611715576001820191505b600160bf830360018703901c018260ff0387901b81611737576117366123c3565b5b0492506fffffffffffffffffffffffffffffffff83111561175e576000935050505061181a565b6000608086901c8402905060006fffffffffffffffffffffffffffffffff871685029050600060c089901c9050600060408a901b9050828110156117a3576001820391505b8281039050608084901b9250828110156117be576001820391505b8281039050608084901c82146117d7576117d66126d1565b5b8881816117e7576117e66123c3565b5b04870196505050505050505b6fffffffffffffffffffffffffffffffff81111561181557600091505061181a565b809150505b92915050565b60008082840390506000808260000b1261185b578160ff16600a0a60028873ffffffffffffffffffffffffffffffffffffffff160a0261188f565b8160000360ff16600a0a60028873ffffffffffffffffffffffffffffffffffffffff160a8161188d5761188c6123c3565b5b045b9050806c0100000000000000000000000011156118b1576000925050506119a1565b60008661190a576c0100000000000000000000000082816118d5576118d46123c3565b5b046fffffffffffffffffffffffffffffffff6c010000000000000000000000000281611904576119036123c3565b5b04611929565b6c010000000000000000000000008281611927576119266123c3565b5b045b9050866119365780611967565b6c010000000000000000000000006fffffffffffffffffffffffffffffffff820281611965576119646123c3565b5b045b93507fffffffffffffffffffffffffffffffffffffffffffffffffffffffffffffffff84111561199d57600093505050506119a1565b5050505b949350505050565b6040518060600160405280600060028111156119c8576119c7611ce6565b5b8152602001600073ffffffffffffffffffffffffffffffffffffffff168152602001600081525090565b6000604051905090565b600080fd5b600080fd5b600073ffffffffffffffffffffffffffffffffffffffff82169050919050565b6000611a3182611a06565b9050919050565b611a4181611a26565b8114611a4c57600080fd5b50565b600081519050611a5e81611a38565b92915050565b600080fd5b6000601f19601f8301169050919050565b7f4e487b7100000000000000000000000000000000000000000000000000000000600052604160045260246000fd5b611ab282611a69565b810181811067ffffffffffffffff82111715611ad157611ad0611a7a565b5b80604052505050565b6000611ae46119f2565b9050611af08282611aa9565b919050565b600067ffffffffffffffff821115611b1057611b0f611a7a565b5b602082029050602081019050919050565b600080fd5b600080fd5b60038110611b3857600080fd5b50565b600081519050611b4a81611b2b565b92915050565b600060408284031215611b6657611b65611b26565b5b611b706040611ada565b90506000611b8084828501611b3b565b6000830152506020611b9484828501611a4f565b60208301525092915050565b6000611bb3611bae84611af5565b611ada565b90508083825260208201905060408402830185811115611bd657611bd5611b21565b5b835b81811015611bff5780611beb8882611b50565b845260208401935050604081019050611bd8565b5050509392505050565b600082601f830112611c1e57611c1d611a64565b5b8151611c2e848260208601611ba0565b91505092915050565b60008060008060808587031215611c5157611c506119fc565b5b6000611c5f87828801611a4f565b9450506020611c7087828801611a4f565b9350506040611c8187828801611a4f565b925050606085015167ffffffffffffffff811115611ca257611ca1611a01565b5b611cae87828801611c09565b91505092959194509250565b600081519050919050565b600082825260208201905092915050565b6000819050602082019050919050565b7f4e487b7100000000000000000000000000000000000000000000000000000000600052602160045260246000fd5b60038110611d2657611d25611ce6565b5b50565b6000819050611d3782611d15565b919050565b6000611d4782611d29565b9050919050565b611d5781611d3c565b82525050565b611d6681611a26565b82525050565b6000819050919050565b611d7f81611d6c565b82525050565b606082016000820151611d9b6000850182611d4e565b506020820151611dae6020850182611d5d565b506040820151611dc16040850182611d76565b50505050565b6000611dd38383611d85565b60608301905092915050565b6000602082019050919050565b6000611df782611cba565b611e018185611cc5565b9350611e0c83611cd6565b8060005b83811015611e3d578151611e248882611dc7565b9750611e2f83611ddf565b925050600181019050611e10565b5085935050505092915050565b60006020820190508181036000830152611e648184611dec565b905092915050565b7f4e487b7100000000000000000000000000000000000000000000000000000000600052603260045260246000fd5b600067ffffffffffffffff821115611eb657611eb5611a7a565b5b602082029050602081019050919050565b6000611eda611ed584611e9b565b611ada565b90508083825260208201905060208402830185811115611efd57611efc611b21565b5b835b81811015611f265780611f128882611a4f565b845260208401935050602081019050611eff565b5050509392505050565b600082601f830112611f4557611f44611a64565b5b8151611f55848260208601611ec7565b91505092915050565b600060208284031215611f7457611f736119fc565b5b600082015167ffffffffffffffff811115611f9257611f91611a01565b5b611f9e84828501611f30565b91505092915050565b611fb081611a26565b82525050565b6000602082019050611fcb6000830184611fa7565b92915050565b611fda81611d6c565b8114611fe557600080fd5b50565b600081519050611ff781611fd1565b92915050565b600060208284031215612013576120126119fc565b5b600061202184828501611fe8565b91505092915050565b7f4e487b7100000000000000000000000000000000000000000000000000000000600052601160045260246000fd5b600061206482611d6c565b915061206f83611d6c565b925082820261207d81611d6c565b915082820484148315176120945761209361202a565b5b5092915050565b6000602082840312156120b1576120b06119fc565b5b60006120bf84828501611a4f565b91505092915050565b60006dffffffffffffffffffffffffffff82169050919050565b6120eb816120c8565b81146120f657600080fd5b50565b600081519050612108816120e2565b92915050565b600063ffffffff82169050919050565b6121278161210e565b811461213257600080fd5b50565b6000815190506121448161211e565b92915050565b600080600060608486031215612163576121626119fc565b5b6000612171868287016120f9565b9350506020612182868287016120f9565b925050604061219386828701612135565b9150509250925092565b60006121a8826120c8565b91506121b3836120c8565b92508282026121c1816120c8565b91508082146121d3576121d261202a565b5b5092915050565b60006040820190506121ef6000830185611fa7565b6121fc6020830184611fa7565b9392505050565b600060ff82169050919050565b600061221b82612203565b915061222683612203565b9250828203905060ff81111561223f5761223e61202a565b5b92915050565b60008160011c9050919050565b6000808291508390505b600185111561229c578086048111156122785761227761202a565b5b60018516156122875780820291505b808102905061229585612245565b945061225c565b94509492505050565b6000826122b55760019050612371565b816122c35760009050612371565b81600181146122d957600281146122e357612312565b6001915050612371565b60ff8411156122f5576122f461202a565b5b8360020a91508482111561230c5761230b61202a565b5b50612371565b5060208310610133831016604e8410600b84101617156123475782820a9050838111156123425761234161202a565b5b612371565b6123548484846001612252565b9250905081840481111561236b5761236a61202a565b5b81810290505b9392505050565b600061238382611d6c565b915061238e83612203565b92506123bb7fffffffffffffffffffffffffffffffffffffffffffffffffffffffffffffffff84846122a5565b905092915050565b7f4e487b7100000000000000000000000000000000000000000000000000000000600052601260045260246000fd5b60006123fd82611d6c565b915061240883611d6c565b925082612418576124176123c3565b5b828204905092915050565b600061ffff82169050919050565b600062ffffff82169050919050565b6000819050919050565b600061246561246061245b84612423565b612440565b612431565b9050919050565b6124758161244a565b82525050565b60006060820190506124906000830186611fa7565b61249d6020830185611fa7565b6124aa604083018461246c565b949350505050565b6124bb81611a06565b81146124c657600080fd5b50565b6000815190506124d8816124b2565b92915050565b60008160020b9050919050565b6124f4816124de565b81146124ff57600080fd5b50565b600081519050612511816124eb565b92915050565b61252081612423565b811461252b57600080fd5b50565b60008151905061253d81612517565b92915050565b61254c81612203565b811461255757600080fd5b50565b60008151905061256981612543565b92915050565b60008115159050919050565b6125848161256f565b811461258f57600080fd5b50565b6000815190506125a18161257b565b92915050565b600080600080600080600060e0888a0312156125c6576125c56119fc565b5b60006125d48a828b016124c9565b97505060206125e58a828b01612502565b96505060406125f68a828b0161252e565b95505060606126078a828b0161252e565b94505060806126188a828b0161252e565b93505060a06126298a828b0161255a565b92505060c061263a8a828b01612592565b91505092959891949750929550565b600081519050919050565b600081905092915050565b60005b8381101561267d578082015181840152602081019050612662565b60008484015250505050565b600061269482612649565b61269e8185612654565b93506126ae81856020860161265f565b80840191505092915050565b60006126c68284612689565b915081905092915050565b7f4e487b7100000000000000000000000000000000000000000000000000000000600052600160045260246000fdfe","linkReferences":{}},"deployedBytecode":{"object":"0x608060405234801561001057600080fd5b506004361061002b5760003560e01c8063339173fd14610030575b600080fd5b61004a60048036038101906100459190611b08565b610060565b6040516100579190611ce1565b60405180910390f35b60606000825167ffffffffffffffff81111561007f5761007e6118ed565b5b6040519080825280602002602001820160405280156100b857816020015b6100a561187a565b81526020019060019003908161009d5790505b50905060005b83518110156103015760008482815181106100dc576100db611d03565b5b60200260200101519050600060028111156100fa576100f9611b7d565b5b8160000151600281111561011157610110611b7d565b5b03610196576000610125826020015161030b565b905060405180606001604052808360000151600281111561014957610148611b7d565b5b8152602001836020015173ffffffffffffffffffffffffffffffffffffffff1681526020018281525084848151811061018557610184611d03565b5b6020026020010181905250506102f3565b600160028111156101aa576101a9611b7d565b5b816000015160028111156101c1576101c0611b7d565b5b036102465760006101d582602001516105a0565b90506040518060600160405280836000015160028111156101f9576101f8611b7d565b5b8152602001836020015173ffffffffffffffffffffffffffffffffffffffff1681526020018281525084848151811061023557610234611d03565b5b6020026020010181905250506102f2565b60028081111561025957610258611b7d565b5b816000015160028111156102705761026f611b7d565b5b036102f15760006102848260200151610846565b90506040518060600160405280836000015160028111156102a8576102a7611b7d565b5b8152602001836020015173ffffffffffffffffffffffffffffffffffffffff168152602001828152508484815181106102e4576102e3611d03565b5b6020026020010181905250505b5b5b5080806001019150506100be565b5080915050919050565b600060608273ffffffffffffffffffffffffffffffffffffffff1663cc77828d6040518163ffffffff1660e01b81526004016000604051808303816000875af192505050801561037e57506040513d6000823e3d601f19601f8201168201806040525081019061037b9190611e0a565b60015b61038c57600091505061059b565b8091505060005b81518110156104cd57600260009054906101000a900473ffffffffffffffffffffffffffffffffffffffff1673ffffffffffffffffffffffffffffffffffffffff168282815181106103e8576103e7611d03565b5b602002602001015173ffffffffffffffffffffffffffffffffffffffff16036104c0578373ffffffffffffffffffffffffffffffffffffffff1663f8b2cb4f83838151811061043a57610439611d03565b5b60200260200101516040518263ffffffff1660e01b815260040161045e9190611e62565b6020604051808303816000875af192505050801561049a57506040513d601f19601f820116820180604052508101906104979190611ea9565b60015b6104a95760009250505061059b565b8251816104b69190611f05565b935050505061059b565b8080600101915050610393565b506000816000815181106104e4576104e3611d03565b5b6020026020010151905060008473ffffffffffffffffffffffffffffffffffffffff1663f8b2cb4f836040518263ffffffff1660e01b81526004016105299190611e62565b6020604051808303816000875af192505050801561056557506040513d601f19601f820116820180604052508101906105629190611ea9565b60015b610575576000935050505061059b565b8091505060006105858383610bc5565b90508351816105949190611f05565b9450505050505b919050565b6000808273ffffffffffffffffffffffffffffffffffffffff16630dfe16816040518163ffffffff1660e01b8152600401602060405180830381865afa92505050801561060b57506040513d601f19601f820116820180604052508101906106089190611f47565b60015b610619576000915050610841565b8091505060008373ffffffffffffffffffffffffffffffffffffffff1663d21220a76040518163ffffffff1660e01b8152600401602060405180830381865afa92505050801561068757506040513d601f19601f820116820180604052508101906106849190611f47565b60015b61069657600092505050610841565b809150508373ffffffffffffffffffffffffffffffffffffffff16630902f1ac6040518163ffffffff1660e01b8152600401606060405180830381865afa92505050801561070257506040513d601f19601f820116820180604052508101906106ff9190611ff6565b60015b61071157600092505050610841565b600260009054906101000a900473ffffffffffffffffffffffffffffffffffffffff1673ffffffffffffffffffffffffffffffffffffffff168573ffffffffffffffffffffffffffffffffffffffff160361078f576002836107739190612049565b6dffffffffffffffffffffffffffff1695505050505050610841565b600260009054906101000a900473ffffffffffffffffffffffffffffffffffffffff1673ffffffffffffffffffffffffffffffffffffffff168473ffffffffffffffffffffffffffffffffffffffff160361080d576002826107f19190612049565b6dffffffffffffffffffffffffffff1695505050505050610841565b600061082986856dffffffffffffffffffffffffffff16610bc5565b90506002816108389190611f05565b96505050505050505b919050565b6000808273ffffffffffffffffffffffffffffffffffffffff16630dfe16816040518163ffffffff1660e01b8152600401602060405180830381865afa9250505080156108b157506040513d601f19601f820116820180604052508101906108ae9190611f47565b60015b6108bf576000915050610bc0565b8091505060008373ffffffffffffffffffffffffffffffffffffffff1663d21220a76040518163ffffffff1660e01b8152600401602060405180830381865afa92505050801561092d57506040513d601f19601f8201168201806040525081019061092a9190611f47565b60015b61093c57600092505050610bc0565b80915050600260009054906101000a900473ffffffffffffffffffffffffffffffffffffffff1673ffffffffffffffffffffffffffffffffffffffff168273ffffffffffffffffffffffffffffffffffffffff1603610a2e578173ffffffffffffffffffffffffffffffffffffffff166370a08231856040518263ffffffff1660e01b81526004016109ce9190611e62565b602060405180830381865afa925050508015610a0857506040513d601f19601f82011682018060405250810190610a059190611ea9565b60015b610a1757600092505050610bc0565b600281610a249190611f05565b9350505050610bc0565b600260009054906101000a900473ffffffffffffffffffffffffffffffffffffffff1673ffffffffffffffffffffffffffffffffffffffff168173ffffffffffffffffffffffffffffffffffffffff1603610b1c578073ffffffffffffffffffffffffffffffffffffffff166370a08231856040518263ffffffff1660e01b8152600401610abc9190611e62565b602060405180830381865afa925050508015610af657506040513d601f19601f82011682018060405250810190610af39190611ea9565b60015b610b0557600092505050610bc0565b600281610b129190611f05565b9350505050610bc0565b8173ffffffffffffffffffffffffffffffffffffffff166370a08231856040518263ffffffff1660e01b8152600401610b559190611e62565b602060405180830381865afa925050508015610b8f57506040513d601f19601f82011682018060405250810190610b8c9190611ea9565b60015b610b9e57600092505050610bc0565b6000610baa8483610bc5565b9050600281610bb99190611f05565b9450505050505b919050565b600080610bd184610c1d565b90506000816fffffffffffffffffffffffffffffffff161115610c0057610bf88184610c64565b915050610c17565b806fffffffffffffffffffffffffffffffff169150505b92915050565b600080610c2983610d55565b90506000816fffffffffffffffffffffffffffffffff161115610c4f5780915050610c5f565b610c58836110b7565b9050809150505b919050565b600080821480610c8657506000836fffffffffffffffffffffffffffffffff16145b15610c945760009050610d4f565b600060406fffffffffffffffffffffffffffffffff8416856fffffffffffffffffffffffffffffffff1602901c90506000608084901c856fffffffffffffffffffffffffffffffff1602905077ffffffffffffffffffffffffffffffffffffffffffffffff811115610d0b57600092505050610d4f565b604081901b9050817fffffffffffffffffffffffffffffffffffffffffffffffffffffffffffffffff03811115610d4757600092505050610d4f565b818101925050505b92915050565b60008060008054906101000a900473ffffffffffffffffffffffffffffffffffffffff1673ffffffffffffffffffffffffffffffffffffffff1663e6a4390584600260009054906101000a900473ffffffffffffffffffffffffffffffffffffffff166040518363ffffffff1660e01b8152600401610dd5929190612086565b602060405180830381865afa158015610df2573d6000803e3d6000fd5b505050506040513d601f19601f82011682018060405250810190610e169190611f47565b9050600073ffffffffffffffffffffffffffffffffffffffff168173ffffffffffffffffffffffffffffffffffffffff1603610e565760009150506110b2565b6000808273ffffffffffffffffffffffffffffffffffffffff16630902f1ac6040518163ffffffff1660e01b8152600401606060405180830381865afa925050508015610ec157506040513d601f19601f82011682018060405250810190610ebe9190611ff6565b60015b610ed157600093505050506110b2565b8294508193505050506000826dffffffffffffffffffffffffffff161480610f0957506000816dffffffffffffffffffffffffffff16145b15610f1a57600093505050506110b2565b600080610f2687611395565b9150915080610f3d576000955050505050506110b2565b6000600260009054906101000a900473ffffffffffffffffffffffffffffffffffffffff1673ffffffffffffffffffffffffffffffffffffffff168873ffffffffffffffffffffffffffffffffffffffff1610610f9a5784610f9c565b835b90506000600260009054906101000a900473ffffffffffffffffffffffffffffffffffffffff1673ffffffffffffffffffffffffffffffffffffffff168973ffffffffffffffffffffffffffffffffffffffff1610610ffb5784610ffd565b855b9050601260ff168460ff1611156110475760128461101b91906120bc565b600a6110279190612224565b816dffffffffffffffffffffffffffff16611042919061229e565b61107c565b83601261105491906120bc565b600a6110609190612224565b816dffffffffffffffffffffffffffff1661107b9190611f05565b5b90506110a8826dffffffffffffffffffffffffffff16826dffffffffffffffffffffffffffff16611504565b9750505050505050505b919050565b60008060405180606001604052806101f461ffff168152602001610bb861ffff16815260200161271061ffff168152509050600080600090505b6003811015611220576000600160009054906101000a900473ffffffffffffffffffffffffffffffffffffffff1673ffffffffffffffffffffffffffffffffffffffff16631698ee8287600260009054906101000a900473ffffffffffffffffffffffffffffffffffffffff1687866003811061117157611170611d03565b5b60200201516040518463ffffffff1660e01b815260040161119493929190612327565b602060405180830381865afa1580156111b1573d6000803e3d6000fd5b505050506040513d601f19601f820116820180604052508101906111d59190611f47565b9050600073ffffffffffffffffffffffffffffffffffffffff168373ffffffffffffffffffffffffffffffffffffffff16146112145780925050611220565b508060010190506110f1565b50600073ffffffffffffffffffffffffffffffffffffffff168173ffffffffffffffffffffffffffffffffffffffff160361126057600092505050611390565b60008173ffffffffffffffffffffffffffffffffffffffff16633850c7bd6040518163ffffffff1660e01b815260040160e060405180830381865afa9250505080156112ca57506040513d601f19601f820116820180604052508101906112c79190612453565b60015b6112da5760009350505050611390565b869750505050505050506000600260009054906101000a900473ffffffffffffffffffffffffffffffffffffffff1673ffffffffffffffffffffffffffffffffffffffff168673ffffffffffffffffffffffffffffffffffffffff1610905060008061134588611395565b915091508061135d5760009650505050505050611390565b6040611385858586611370576012611372565b855b8761137d5786611380565b60125b6116f1565b901c96505050505050505b919050565b6000806000808473ffffffffffffffffffffffffffffffffffffffff16614e206040516024016040516020818303038152906040527f313ce567000000000000000000000000000000000000000000000000000000007bffffffffffffffffffffffffffffffffffffffffffffffffffffffff19166020820180517bffffffffffffffffffffffffffffffffffffffffffffffffffffffff83818316178352505050506040516114459190612566565b60006040518083038160008787f1925050503d8060008114611483576040519150601f19603f3d011682016040523d82523d6000602084013e611488565b606091505b509150915081156114f557600060208251036114e657818060200190518101906114b29190611ea9565b905060008114806114c3575060ff81115b156114d757600080945094505050506114ff565b806001945094505050506114ff565b600080945094505050506114ff565b6000809350935050505b915091565b600080820361151657600090506116eb565b600077ffffffffffffffffffffffffffffffffffffffffffffffff84116115535782604085901b8161154b5761154a61226f565b5b0490506116c4565b600060c09050600060c086901c9050640100000000811061157c57602081901c90506020820191505b62010000811061159457601081901c90506010820191505b61010081106115ab57600881901c90506008820191505b601081106115c157600481901c90506004820191505b600481106115d757600281901c90506002820191505b600281106115e6576001820191505b600160bf830360018703901c018260ff0387901b816116085761160761226f565b5b0492506fffffffffffffffffffffffffffffffff83111561162f57600093505050506116eb565b6000608086901c8402905060006fffffffffffffffffffffffffffffffff871685029050600060c089901c9050600060408a901b905082811015611674576001820391505b8281039050608084901b92508281101561168f576001820391505b8281039050608084901c82146116a8576116a761257d565b5b8881816116b8576116b761226f565b5b04870196505050505050505b6fffffffffffffffffffffffffffffffff8111156116e65760009150506116eb565b809150505b92915050565b60008082840390506000808260000b1261172c578160ff16600a0a60028873ffffffffffffffffffffffffffffffffffffffff160a02611760565b8160000360ff16600a0a60028873ffffffffffffffffffffffffffffffffffffffff160a8161175e5761175d61226f565b5b045b9050806c01000000000000000000000000111561178257600092505050611872565b6000866117db576c0100000000000000000000000082816117a6576117a561226f565b5b046fffffffffffffffffffffffffffffffff6c0100000000000000000000000002816117d5576117d461226f565b5b046117fa565b6c0100000000000000000000000082816117f8576117f761226f565b5b045b9050866118075780611838565b6c010000000000000000000000006fffffffffffffffffffffffffffffffff8202816118365761183561226f565b5b045b93507fffffffffffffffffffffffffffffffffffffffffffffffffffffffffffffffff84111561186e5760009350505050611872565b5050505b949350505050565b60405180606001604052806000600281111561189957611898611b7d565b5b8152602001600073ffffffffffffffffffffffffffffffffffffffff168152602001600081525090565b6000604051905090565b600080fd5b600080fd5b600080fd5b6000601f19601f8301169050919050565b7f4e487b7100000000000000000000000000000000000000000000000000000000600052604160045260246000fd5b611925826118dc565b810181811067ffffffffffffffff82111715611944576119436118ed565b5b80604052505050565b60006119576118c3565b9050611963828261191c565b919050565b600067ffffffffffffffff821115611983576119826118ed565b5b602082029050602081019050919050565b600080fd5b600080fd5b600381106119ab57600080fd5b50565b6000813590506119bd8161199e565b92915050565b600073ffffffffffffffffffffffffffffffffffffffff82169050919050565b60006119ee826119c3565b9050919050565b6119fe816119e3565b8114611a0957600080fd5b50565b600081359050611a1b816119f5565b92915050565b600060408284031215611a3757611a36611999565b5b611a41604061194d565b90506000611a51848285016119ae565b6000830152506020611a6584828501611a0c565b60208301525092915050565b6000611a84611a7f84611968565b61194d565b90508083825260208201905060408402830185811115611aa757611aa6611994565b5b835b81811015611ad05780611abc8882611a21565b845260208401935050604081019050611aa9565b5050509392505050565b600082601f830112611aef57611aee6118d7565b5b8135611aff848260208601611a71565b91505092915050565b600060208284031215611b1e57611b1d6118cd565b5b600082013567ffffffffffffffff811115611b3c57611b3b6118d2565b5b611b4884828501611ada565b91505092915050565b600081519050919050565b600082825260208201905092915050565b6000819050602082019050919050565b7f4e487b7100000000000000000000000000000000000000000000000000000000600052602160045260246000fd5b60038110611bbd57611bbc611b7d565b5b50565b6000819050611bce82611bac565b919050565b6000611bde82611bc0565b9050919050565b611bee81611bd3565b82525050565b611bfd816119e3565b82525050565b6000819050919050565b611c1681611c03565b82525050565b606082016000820151611c326000850182611be5565b506020820151611c456020850182611bf4565b506040820151611c586040850182611c0d565b50505050565b6000611c6a8383611c1c565b60608301905092915050565b6000602082019050919050565b6000611c8e82611b51565b611c988185611b5c565b9350611ca383611b6d565b8060005b83811015611cd4578151611cbb8882611c5e565b9750611cc683611c76565b925050600181019050611ca7565b5085935050505092915050565b60006020820190508181036000830152611cfb8184611c83565b905092915050565b7f4e487b7100000000000000000000000000000000000000000000000000000000600052603260045260246000fd5b600067ffffffffffffffff821115611d4d57611d4c6118ed565b5b602082029050602081019050919050565b600081519050611d6d816119f5565b92915050565b6000611d86611d8184611d32565b61194d565b90508083825260208201905060208402830185811115611da957611da8611994565b5b835b81811015611dd25780611dbe8882611d5e565b845260208401935050602081019050611dab565b5050509392505050565b600082601f830112611df157611df06118d7565b5b8151611e01848260208601611d73565b91505092915050565b600060208284031215611e2057611e1f6118cd565b5b600082015167ffffffffffffffff811115611e3e57611e3d6118d2565b5b611e4a84828501611ddc565b91505092915050565b611e5c816119e3565b82525050565b6000602082019050611e776000830184611e53565b92915050565b611e8681611c03565b8114611e9157600080fd5b50565b600081519050611ea381611e7d565b92915050565b600060208284031215611ebf57611ebe6118cd565b5b6000611ecd84828501611e94565b91505092915050565b7f4e487b7100000000000000000000000000000000000000000000000000000000600052601160045260246000fd5b6000611f1082611c03565b9150611f1b83611c03565b9250828202611f2981611c03565b91508282048414831517611f4057611f3f611ed6565b5b5092915050565b600060208284031215611f5d57611f5c6118cd565b5b6000611f6b84828501611d5e565b91505092915050565b60006dffffffffffffffffffffffffffff82169050919050565b611f9781611f74565b8114611fa257600080fd5b50565b600081519050611fb481611f8e565b92915050565b600063ffffffff82169050919050565b611fd381611fba565b8114611fde57600080fd5b50565b600081519050611ff081611fca565b92915050565b60008060006060848603121561200f5761200e6118cd565b5b600061201d86828701611fa5565b935050602061202e86828701611fa5565b925050604061203f86828701611fe1565b9150509250925092565b600061205482611f74565b915061205f83611f74565b925082820261206d81611f74565b915080821461207f5761207e611ed6565b5b5092915050565b600060408201905061209b6000830185611e53565b6120a86020830184611e53565b9392505050565b600060ff82169050919050565b60006120c7826120af565b91506120d2836120af565b9250828203905060ff8111156120eb576120ea611ed6565b5b92915050565b60008160011c9050919050565b6000808291508390505b60018511156121485780860481111561212457612123611ed6565b5b60018516156121335780820291505b8081029050612141856120f1565b9450612108565b94509492505050565b600082612161576001905061221d565b8161216f576000905061221d565b8160018114612185576002811461218f576121be565b600191505061221d565b60ff8411156121a1576121a0611ed6565b5b8360020a9150848211156121b8576121b7611ed6565b5b5061221d565b5060208310610133831016604e8410600b84101617156121f35782820a9050838111156121ee576121ed611ed6565b5b61221d565b61220084848460016120fe565b9250905081840481111561221757612216611ed6565b5b81810290505b9392505050565b600061222f82611c03565b915061223a836120af565b92506122677fffffffffffffffffffffffffffffffffffffffffffffffffffffffffffffffff8484612151565b905092915050565b7f4e487b7100000000000000000000000000000000000000000000000000000000600052601260045260246000fd5b60006122a982611c03565b91506122b483611c03565b9250826122c4576122c361226f565b5b828204905092915050565b600061ffff82169050919050565b600062ffffff82169050919050565b6000819050919050565b600061231161230c612307846122cf565b6122ec565b6122dd565b9050919050565b612321816122f6565b82525050565b600060608201905061233c6000830186611e53565b6123496020830185611e53565b6123566040830184612318565b949350505050565b612367816119c3565b811461237257600080fd5b50565b6000815190506123848161235e565b92915050565b60008160020b9050919050565b6123a08161238a565b81146123ab57600080fd5b50565b6000815190506123bd81612397565b92915050565b6123cc816122cf565b81146123d757600080fd5b50565b6000815190506123e9816123c3565b92915050565b6123f8816120af565b811461240357600080fd5b50565b600081519050612415816123ef565b92915050565b60008115159050919050565b6124308161241b565b811461243b57600080fd5b50565b60008151905061244d81612427565b92915050565b600080600080600080600060e0888a031215612472576124716118cd565b5b60006124808a828b01612375565b97505060206124918a828b016123ae565b96505060406124a28a828b016123da565b95505060606124b38a828b016123da565b94505060806124c48a828b016123da565b93505060a06124d58a828b01612406565b92505060c06124e68a828b0161243e565b91505092959891949750929550565b600081519050919050565b600081905092915050565b60005b8381101561252957808201518184015260208101905061250e565b60008484015250505050565b6000612540826124f5565b61254a8185612500565b935061255a81856020860161250b565b80840191505092915050565b60006125728284612535565b915081905092915050565b7f4e487b7100000000000000000000000000000000000000000000000000000000600052600160045260246000fdfea2646970667358221220571d4bdaf0988fa4852bff8cf50e6cfe1fe00f76322de3c5faf75beb59d4de0b64736f6c634300081c0033","linkReferences":{}},"methodIdentifiers":{"getWethValueInPools((uint8,address)[])":"339173fd"},"id":38}